:020000040800F2
:1000000000500020354C0008654A00086B4A000883
:10001000714A0008774A00087D4A00080000000085
:10002000000000000000000000000000834A0008FB
:100030008F4A0008000000009B4A0008A74A0008F9
:100040007D4C00087D4C00087D4C00087D4C00086C
:100050007D4C00087D4C00087D4C0008B34A000828
:10006000C14A0008CF4A0008DD4A00087D4C00085C
:100070007D4C00087D4C00087D4C0008ED4A0008CE
:100080007D4C00087D4C0008014B00087D4C0008A9
:100090007D4C00087D4C00087D4C00081D4B00087D
:1000A000354B0008494B00087D4C00087D4C00088A
:1000B0005D4B0008714B0008854B00087D4C000823
:1000C0007D4C00087D4C00087D4C00087D4C0008EC
:1000D0007D4C0008994B00087D4C00087D4C0008C1
:1000E000AD4B00087D4C00087D4C0008000000006E
:1000F0000000000000000000000000000000000000
:0C01000000000000000000005FF808F1A3
:10010C0010B5054C237833B9044B13B10448AFF345
:10011C0000800123237010BDA80200200000000005
:10012C00CCA5000808B5034B1BB103490348AFF33A
:10013C00008008BD00000000AC020020CCA5000827
:10014C0010F8012B11F8013B012A28BF9A42F7D075
:10015C00D01A7047034613F8012B002AFBD1181A4A
:10016C000138704780B485B000AF786039603B6867
:10017C00013B032B4FD801A252F823F09901000840
:10018C00A1010008BD010008E70100087B681B788D
:10019C00FB6040E07B681B781A4613469B001344B7
:1001AC005B001A467B6801331B781344FB6032E01A
:1001BC007B681B781A46642303FB02F27B680133CD
:1001CC001B7819460B469B000B445B0013447A6862
:1001DC00023212781344FB601DE07B681B781A46D0
:1001EC004FF47A7303FB02F27B6801331B781946D8
:1001FC00642301FB03F31A447B6802331B78194612
:10020C000B469B000B445B0013447A680332127854
:10021C001344FB6000BFFB6818461437BD4680BC16
:10022C00704700BF80B483B000AF78607B68632BED
:10023C000BDD7A68084B83FB02135911D317CB1AC9
:10024C00642101FB03F3D31A00E07B6818460C37DA
:10025C00BD4680BC704700BF1F85EB5180B483B096
:10026C0000AF00237B600AE00A4A7B6813441B78CA
:10027C00002B01D0012307E07B6801337B607B6896
:10028C00B3F5967FF0D3002318460C37BD4680BCDF
:10029C00704700BF2405002080B489B000AFF8601F
:1002AC00B9607A603B600023FB610023BB610023D3
:1002BC007B6112E07B69FA6813441A787B69796870
:1002CC000B441B789A4202D04FF0FF331DE0BB6900
:1002DC000133BB617B6901337B617A693B689A426C
:1002EC00E8DB0DE0BB69FA681A44FB69B96A0B4498
:1002FC0012781A70FB690133FB61BB690133BB6176
:10030C00BA693B689A42EDDB002318462437BD4698
:10031C0080BC7047F0B599B00EAF7C4B01221A60CF
:10032C007B4B00221A607B4B01221A607A4B002215
:10033C001A607A4B00221A60794B00221A60794BB2
:10034C0000221A60784B00221A60784B00221A6047
:10035C0000F0C6FC00F01CFEFFF780FF78627B6AA1
:10036C00002B04D04FF4967004F0E6FCE7E77048DD
:10037C00FFF7F0FE03469AB240F6B8336C496D486D
:10038C0007F0BAFD40F2DC5004F0D6FC00F0A8FCFB
:10039C0000F0FEFD20E04FF4FA7004F0CDFC624B4F
:1003AC001B680133604A13605B4B1B68092B05DD2E
:1003BC00594B00221A6000F059FAC0E75A4B1B68DF
:1003CC00092B09DD544B1B680133534A136000F0B1
:1003DC0087FC00F0DDFDB2E7504B1B68002BDAD038
:1003EC004E4B00221A60504B00221A60FFF736FF6A
:1003FC0078627B6A002B04D04FF4967004F09CFC5E
:10040C00F4E74D48FFF7A6FE03469AB240F6B83320
:10041C004949484807F070FD20E04FF4FA7004F0A9
:10042C008BFC414B1B6801333F4A13603A4B1B68F2
:10043C00092B05DD384B00221A6000F017FA7EE715
:10044C00394B1B68092B09DD334B1B680133324ACE
:10045C00136000F045FC00F09BFD70E7314B1B680E
:10046C00002BDAD02C4B00221A60344B01221A607C
:10047C002C4B00221A602C4B00221A603048FFF7DC
:10048C0069FE03461A462F4B1A60FFF7E7FE7862A7
:10049C007B6A002B04D04FF4967004F04DFCE4E71B
:1004AC002748FFF757FE03469AB240F6B833244963
:1004BC00204807F021FD4FF47A7004F03DFC00F069
:1004CC000FFC00F065FD3FE04FF4FA7004F034FCD3
:1004DC00154B1B680133144A13600F4B1B68092B17
:1004EC0005DD0D4B00221A6000F0C0F927E70E4B1A
:1004FC001B68092B28DD084B1B680133064A136067
:10050C0000F0EEFB00F044FDAFE700BFC80B00208D
:10051C00E0090020DC090020D00B0020D80B0020C3
:10052C00E40B0020C8090020D8090020CC090020C9
:10053C00100100209804002038010020CC0B002072
:10054C0060010020E00B00209B4B1B68002BBBD0F4
:10055C00994B00221A60994B00221A6000F0C0FBE4
:10056C0000F016FD964B1B68002B03F00103B8BF7F
:10057C005B42944A1360944B1B68002B03F00103FD
:10058C00B8BF5B42914A1360914B1B68002B03F080
:10059C000103B8BF5B428F4A13608F4B1B68002B63
:1005AC0003F00103B8BF5B428C4A136010218C48E6
:1005BC0005F034FE0346002B0CBF01230023DBB2F5
:1005CC003B624FF48041864805F028FE0346FB61F0
:1005DC004FF40041824805F021FE0346BB61814B7C
:1005EC001B781846FFF71EFE78617E4B5B78184629
:1005FC00FFF718FE38617B4B9B781846FFF712FE0D
:10060C00F860784BDB781846FFF70CFEB860764B39
:10061C001B68764A12687649096876480068764CF9
:10062C002468684D2D68694E3668DFF8A8C1DCF87F
:10063C0000C0C7F804C0DFF8A4E1DEF800E0C7F89A
:10064C0000E0D7F818C0CDF834C0D7F81CC0CDF8EE
:10065C0030C0D7F820C0CDF82CC0D7F800E0CDF8CA
:10066C0028E0D7F804C0CDF824C008960795069466
:10067C0005900491039202933B6901937B6900936B
:10068C00BB68FA685D495E4808F038FE5C48FFF7C5
:10069C0061FD03461A465B4B1A60FFF7DFFD78627B
:1006AC007B6A002B04D04FF4967004F045FB55E7A1
:1006BC00544B1B689AB240F6B8335149524807F074
:1006CC001BFC1DE04FF4FA7004F036FB3B4B1B682F
:1006DC0001333A4A13604D4B1B68092B02DD00F0C5
:1006EC00C5F82CE6354B1B68092B09DD474B1B68FD
:1006FC000133464A136000F0F3FA00F049FC1EE6A1
:10070C00434B1B68002BDDD0424B00221A6000F0DB
:10071C00E7FA00F03DFC3D4B00221A603C4B0022F6
:10072C001A60264B00221A603B4B1B68002B03D02F
:10073C00394B00221A6002E600F0D2FA00F028FCD5
:10074C00FFF78CFD78627B6A002B04D04FF4967017
:10075C0004F0F2FAE2E73148FFF7FCFC03469AB2E8
:10076C0040F6B8332D49284807F0C6FB2C4B012224
:10077C001A6057E04FF4FA7004F0DEFA0F4B1B6866
:10078C0001330E4A1360214B1B68092B05DD1F4BEF
:10079C0000221A6000F06AF8D1E5084B1B680E2B9A
:1007AC0040DD1A4B1B680133184A136000F098FAAD
:1007BC0000F0EEFBB2E700BFD80B0020D8090020F8
:1007CC00EC090020340A0020F0090020380A00202F
:1007DC00F40900203C0A002020020020400A0020DE
:1007EC00000C0140B40A0020F00A0020F40A00209A
:1007FC0014020020180200201C02002078A6000819
:10080C00040B0020DC0B002098040020D00B0020EF
:10081C00C8090020CC0B0020E40B0020880100202C
:10082C00D40B00200B4B1B68002BA3D00A4B0022CF
:10083C001A600A4B00221A60094B01221A60094BFC
:10084C0000221A60084B00221A6000BF2C37BD46EC
:10085C00F0BD00BFC8090020D40B0020D00B002035
:10086C00E0090020DC090020C80B002080B582B014
:10087C0000AF9B4B00221A609A4B01221A60002396
:10088C007B60994B00221A60984B00221A60FFF78C
:10089C00E5FC78607B68002B04D04FF47A7004F090
:1008AC004BFAEEE79248FFF755FC03469AB240F636
:1008BC00B8338F498F4807F01FFB11E04FF4FA70E3
:1008CC0004F03AFA894B1B680133884A1360864B53
:1008DC001B68012B09D0854B1B68092B00DDD0E769
:1008EC00814B1B68002BE9D000E000BF43F2C8200D
:1008FC0004F022FA7C4B00221A607C4B00221A6016
:10090C00FFF7ACFC78607B68002B04D04FF47A7056
:10091C0004F012FAEEE77848FFF71CFC03469AB293
:10092C0040F6B8337449734807F0E6FA11E04FF417
:10093C00FA7004F001FA6D4B1B6801336B4A1360BB
:10094C00694B1B68012B09D0684B1B68092B00DD18
:10095C00D0E7654B1B68002BE9D000E000BF42F2EA
:10096C00107004F0E9F9604B00221A605F4B002212
:10097C001A60FFF773FC78607B68002B04D04FF48F
:10098C007A7004F0D9F9EEE75C48FFF7E3FB034615
:10099C009AB24FF47A735949564807F0ADFA11E000
:1009AC004FF4FA7004F0C8F9504B1B6801334F4AEE
:1009BC0013604D4B1B68012B09D04C4B1B68092B4A
:1009CC0000DDD0E7484B1B68002BE9D000E000BFEE
:1009DC00454B00221A60454B00221A60FFF73EFC83
:1009EC0078607B68002B04D04FF47A7004F0A4F983
:1009FC00EEE74348FFF7AEFB03469AB240F6B83336
:100A0C003F493C4807F078FA11E04FF4FA7004F0D3
:100A1C0093F9364B1B680133344A1360324B1B6815
:100A2C00012B09D0314B1B68092B00DDD0E72E4B75
:100A3C001B68002BE9D000E000BF2B4B00221A6092
:100A4C002A4B00221A60FFF709FC78607B68002BA8
:100A5C0004D04FF47A7004F06FF9EEE72948FFF7F1
:100A6C0079FB03469AB240F6B8332649214807F081
:100A7C0043FA11E04FF4FA7004F05EF91B4B1B685B
:100A8C0001331A4A1360184B1B68012B09D0174B02
:100A9C001B68092B00DDD0E7134B1B68002BE9D03A
:100AAC0000E000BF104B00221A60104B00221A60AD
:100ABC00FFF7D4FB78607B68002B04D04FF47A707E
:100ACC0004F03AF9EEE71048FFF744FB03469AB2FC
:100ADC0040F6B8330C49074807F00EFA28E000BF7F
:100AEC00E0090020DC090020C8090020D8090020FA
:100AFC000000002098040020140000202800002092
:100B0C005000002078000020A00000204FF4FA7064
:100B1C0004F012F9674B1B680133664A1360664B8D
:100B2C001B68012B09D0634B1B68092B00DDB9E74F
:100B3C00614B1B68002BE9D000E000BF5E4B00222C
:100B4C001A605C4B00221A60FFF788FB78607B68A8
:100B5C00002B04D04FF47A7004F0EEF8EEE757480F
:100B6C00FFF7F8FA03469AB240F6B83353495448A3
:100B7C0007F0C2F911E04FF4FA7004F0DDF84D4BB8
:100B8C001B6801334B4A13604B4B1B68012B09D07C
:100B9C00484B1B68092B00DDD0E7474B1B68002B2B
:100BAC00E9D000E000BF474B00221A60424B002204
:100BBC001A60404B00221A60FFF750FB78607B688C
:100BCC00002B04D04FF47A7004F0B6F8EEE73E48F0
:100BDC00FFF7C0FA03469AB240F6B8333A493848A0
:100BEC0007F08AF94FF4FA6004F0A6F81CE04FF411
:100BFC00FA7004F0A1F82F4B1B6801332D4A1360D7
:100C0C00324B1B68092B05DD304B00221A60FFF7B5
:100C1C002DFECBE7274B1B68092B05DD2B4B1B68E7
:100C2C0001332A4A1360C1E7264B1B68002BDED028
:100C3C00244B00221A60FFF711FB78607B68002BB5
:100C4C0004D04FF47A7004F077F8F4E72048FFF7FB
:100C5C0081FA03469AB240F6B8331D49184807F09A
:100C6C004BF911E04FF4FA7004F066F8114B1B6865
:100C7C000133104A1360104B1B68012B09D00D4B2C
:100C8C001B68092B00DD91E70B4B1B68002BE9D08F
:100C9C0000E000BF0B4B00221A600E4B01221A60C1
:100CAC000D4B00221A600D4B00221A6000BF083752
:100CBC00BD4680BDD8090020C8090020C80000200E
:100CCC0098040020D80B0020B0010020D00B00208D
:100CDC00D8010020E0090020DC090020E4090020F4
:100CEC0080B582B000AF954B1B68002B03F001035D
:100CFC00B8BF5B42002B02D0012B5FD01AE1904BA6
:100D0C0000221A708F4B01221A608F4B00221A603E
:100D1C0001224FF480518D4805F097FA00224FF4D0
:100D2C0000518A4805F091FA894B1B68894A136077
:100D3C00894B1B68894A1360894B1B68894A13606D
:100D4C00834B1B6803F00103002B06D101224FF4E7
:100D5C000061854805F079FA05E000224FF4006146
:100D6C00814805F072FA7C4B1B68002B03F00103E1
:100D7C00B8BF5B42012B06D101224FF480517A4857
:100D8C0005F063FA05E000224FF48051764805F037
:100D9C005CFA734B1B68002B03F00103B8BF5B427A
:100DAC00012B05D1012201216F4805F04EFAC1E05B
:100DBC00002201216C4805F048FABBE06B4B1B6824
:100DCC00012B03D15E4B01221A7002E05C4B002216
:100DDC001A705D4B01221A605A4B00221A600022D5
:100DEC004FF48051594805F030FA01224FF400516C
:100DFC00564805F02AFA574B1B68002B03F00103E9
:100E0C00B8BF5B421A46524B1B68002B03F0010320
:100E1C00B8BF5B429A4221D1504B1B68002B03F0A8
:100E2C000103B8BF5B421A464B4B1B68002B03F007
:100E3C000103B8BF5B429A4210D14A4B1B68002B8E
:100E4C0003F00103B8BF5B421A46454B1B68002BED
:100E5C0003F00103B8BF5B429A4201D0012300E0CA
:100E6C0000237B603A4B1B683A4A13603A4B1B6871
:100E7C003A4A13603A4B1B683A4A13607B68002B62
:100E8C000DD03B4B1B685A4203F0030302F00302E4
:100E9C0058BF5342012B02D0364B01221A60364BFD
:100EAC001A68364B1B689A4209DD00224FF4006128
:100EBC002D4805F0CAF9264B01221A6008E00122E0
:100ECC004FF40061284805F0C0F9214B00221A604C
:100EDC002B4B9B781A462B4B1B689A4209DD01223F
:100EEC004FF48051204805F0B0F91B4B01221A60D9
:100EFC0008E000224FF480511B4805F0A6F9164B70
:100F0C0000221A60204B1A68204B1B689A4208DD9D
:100F1C0001220121144805F098F9114B01221A60A5
:100F2C0007E000220121104805F08FF90C4B00223C
:100F3C001A6000BF00BF0837BD4680BD20020020EC
:100F4C00640B0020F809002024020020000C014052
:100F5C00EC090020680B0020F00900206C0B00202D
:100F6C00F4090020700B002000080140600B0020E9
:100F7C002C02002030020020F00A00201402002075
:100F8C00B40A00201C020020F40A002018020020E1
:100F9C0080B586B000AFB04B1B68002B00F0098504
:100FAC00AD4B00221A60AD4B1A68AD4B83FB02139C
:100FBC0013449910D317C91A0B46DB005B1AD11ACC
:100FCC00062900F2F68401A353F821F0F50F00086E
:100FDC0019100008F7110008D51200080B130008AF
:100FEC00071500086F17000808F000F90021002011
:100FFC0008F013F99B4808F06CF90021012008F067
:10100C000CF9994808F065F900F0D3BC974B1B68B4
:10101C00002B19D0964B4FF0FF321A60954B0022E3
:10102C001A60954B01221A60904B00221A6008F04E
:10103C00DDF80121002008F0F0F8904808F049F99B
:10104C000021012008F0E9F8894B1B680133884A1C
:10105C001360884B1B680133864A1360854B1B68F1
:10106C00012B40F3A584834B1B68022B02D1804BD0
:10107C0000221A60824B1B68092B0ADC804B1B6810
:10108C00002B06DB7E4B1A68794B1B68D1B27D4A6C
:10109C00D1547B4B1B680B2B00F2A28001A252F89F
:1010AC0023F000BF29110008E1100008E910000826
:1010BC00F1100008F91000080111000809110008CE
:1010CC00111100081911000821110008ED11000878
:1010DC00311100086C4808F0FCF885E06A4808F00B
:1010EC00F8F881E0684808F0F4F87DE0664808F00C
:1010FC00F0F879E0644808F0ECF875E0624808F024
:10110C00E8F871E0604808F0E4F86DE05E4808F03B
:10111C00E0F869E05C4808F0DCF865E05A4808F053
:10112C00D8F861E001233B6000237B610FE0554A56
:10113C007B6913441A7855497B690B441B789A4296
:10114C0002D000233B6005E07B6901337B617B6946
:10115C00052BECDD00233B6107E04A4A3B69134455
:10116C0000221A703B6901333B613B69052BF4DDAE
:10117C003B68002B16D0394B02221A60364B0122E9
:10118C001A6008F033F80121002008F046F84048B6
:10119C0008F09FF83F4B01221A604FF47A7003F06D
:1011AC00CBFD21E02D4B01221A60304B01221A603D
:1011BC00294B01221A6008F019F80121002008F0CF
:1011CC002CF8354808F085F80121012008F025F8A5
:1011DC00324808F07EF84FF47A7003F0ADFD03E06E
:1011EC002F4808F076F800BFE2E307F0FFFF00217C
:1011FC00002008F012F82B4808F06BF800210120B1
:10120C0008F00BF8284B1B6803F00103002B03D1EB
:10121C00264808F05EF802E0254808F05AF8254BFD
:10122C001B68002B03F00103B8BF5B42012B03D1F9
:10123C001E4808F04EF802E01D4808F04AF81E4B14
:10124C001B68002B03F00103B8BF5B42012B37D1A5
:10125C001A4808F03EF8ACE3300200202C020020C3
:10126C0093244992C80A0020DC0A00203402002092
:10127C00580B00205C0B0020000B0020BCA60008C3
:10128C00FC0A0020500B0020CCA6000838020020DD
:10129C00D0A60008600B0020E4A60008F4A6000805
:1012AC0004A7000808A70008EC09002018A70008EC
:1012BC0020A70008F0090020F409002028A7000846
:1012CC00B34808F006F874E307F090FF05210020FE
:1012DC0007F0A3FFAF4807F0FCFF0521012007F042
:1012EC009CFFAD4B1B6803F00103002B03D0AB48F4
:1012FC0007F0EFFF5DE3AA4807F0EBFF59E3A94BBA
:10130C001B68002B13D0A74B00221A6007F06EFF4E
:10131C000021002007F081FFA34807F0DAFF00212D
:10132C00012007F07AFFA14B00221A6041E3A04B89
:10133C001B680B2B00F2DB8001A252F823F000BFDC
:10134C007D1300088F130008A1130008B3130008C5
:10135C00C5130008D7130008E9130008FB13000895
:10136C000D1400081F140008FB14000831140008A9
:10137C00904807F0AEFF8D4B1B688F4A0021D1546B
:10138C00B5E08E4807F0A5FF884B1B688A4A0121FF
:10139C00D154ACE08A4807F09CFF844B1B68864A0A
:1013AC000221D154A3E0874807F093FF7F4B1B68C1
:1013BC00814A0321D1549AE0834807F08AFF7B4B82
:1013CC001B687D4A0421D15491E0804807F081FFCD
:1013DC00764B1B68784A0521D15488E07C4807F08D
:1013EC0078FF724B1B68744A0621D1547FE0794810
:1013FC0007F06FFF6D4B1B686F4A0721D15476E0E5
:10140C00754807F066FF694B1B686B4A0821D1547D
:10141C006DE0724807F05DFF644B1B68664A09215A
:10142C00D15464E06448FEF795FE034619466248C1
:10143C00FEF798FE0346B3F5805F2CDA5E48FEF7A4
:10144C0089FE034619465C48FEF78CFE0346002BCA
:10145C0021DB07F0CBFE0021002007F0DEFE604808
:10146C0007F037FF5448FEF775FE034619465248FD
:10147C00FEF778FE03465B4A13604A4B01221A6062
:10148C00594B05221A60594B01221A604FF47A709D
:10149C0003F052FC1CE007F0A9FE0021002007F02D
:1014AC00BCFE534807F015FF0021012007F0B5FEE4
:1014BC00504807F00EFF3B4B01221A604A4B0422A6
:1014CC001A604A4B01221A604FF47A7003F034FC14
:1014DC000023FB6007E0384AFB68134400221A70B3
:1014EC00FB680133FB60FB680F2BF4D900BF2F4B5B
:1014FC001B6801332D4A13605BE22A4B1B68002BDF
:10150C0013D0284B00221A6007F070FE0021002037
:10151C0007F083FE384807F0DCFE0021012007F0BD
:10152C007CFE224B00221A6043E2214B1B680B2BE2
:10153C0000F2118101A252F823F000BF79150008C6
:10154C008B150008091600081B1600082D1600083C
:10155C003F1600085116000863160008751600089F
:10156C00871600086317000899160008114807F041
:10157C00B0FE0E4B1B68104A0021D154EBE00F4813
:10158C0007F0A7FE094B1B680B4A0121D154E2E07E
:10159C0030A7000838A700082002002040A7000848
:1015AC0048A700083402002054A70008F80B0020BC
:1015BC00FC0A002004A70008E80B002064A7000820
:1015CC0068A700086CA7000870A7000874A700089B
:1015DC0078A700087CA7000880A7000884A700084B
:1015EC0088A70008140200202C02002030020020E2
:1015FC008CA7000898A70008A8A70008A24807F025
:10160C0068FEA24B1B68A24A0221D154A3E0A14858
:10161C0007F05FFE9D4B1B689D4A0321D1549AE055
:10162C009D4807F056FE994B1B68994A0421D154EA
:10163C0091E09A4807F04DFE944B1B68944A0521A3
:10164C00D15488E0964807F044FE904B1B68904AB2
:10165C000621D1547FE0934807F03BFE8B4B1B686F
:10166C008B4A0721D15476E08F4807F032FE874B26
:10167C001B68874A0821D1546DE08C4807F029FE7D
:10168C00824B1B68824A0921D15464E08048FEF7E2
:10169C0061FD034619467E48FEF764FD0346B3F52B
:1016AC00805F2CDA7A48FEF755FD034619467848D8
:1016BC00FEF758FD0346002B21DB07F097FD0021B8
:1016CC00002007F0AAFD7A4807F003FE7048FEF7E9
:1016DC0041FD034619466E48FEF744FD0346754A24
:1016EC001360754B01221A60744B06221A60744BFE
:1016FC0001221A604FF47A7003F01EFB1CE007F015
:10170C0075FD0021002007F088FD6E4807F0E1FD13
:10171C000021012007F081FD6B4807F0DAFD664BD4
:10172C0001221A60654B05221A60654B01221A6072
:10173C004FF47A7003F000FB0023BB6007E0544ABF
:10174C00BB68134400221A70BB680133BB60BB68D2
:10175C000F2BF4D900BF4D4B1B6801334B4A136060
:10176C0027E1554B1B68002B13D0534B00221A60FA
:10177C0007F03CFD0021002007F04FFD534807F017
:10178C00A8FD0021012007F048FD404B00221A6003
:10179C000FE14F4B1B680B2B00F2048101A252F896
:1017AC0023F000BFE1170008F31700080518000824
:1017BC0017180008291800083B1800084D180008D5
:1017CC005F1800087118000883180008B119000888
:1017DC00E91800083F4807F07CFD2C4B1B682C4A8D
:1017EC000021D154DEE03C4807F073FD274B1B6809
:1017FC00274A0121D154D5E0234807F06AFD234B39
:10180C001B68234A0221D154CCE0224807F061FD29
:10181C001E4B1B681E4A0321D154C3E01E4807F01F
:10182C0058FD1A4B1B681A4A0421D154BAE01B48C4
:10183C0007F04FFD154B1B68154A0521D154B1E03B
:10184C00174807F046FD114B1B68114A0621D1546D
:10185C00A8E0144807F03DFD0C4B1B680C4A07210F
:10186C00D1549FE0104807F034FD084B1B68084A20
:10187C000821D15496E00D4807F02BFD034B1B6853
:10188C00034A0921D1548DE068A70008F80B002009
:10189C00E80B00206CA7000870A7000874A70008CC
:1018AC0078A700087CA7000880A7000884A7000878
:1018BC0088A7000818020020340200202C02002007
:1018CC00300200208CA7000898A70008B4A70008D5
:1018DC00FC0A002004A7000864A700083748FEF79C
:1018EC0039FC034619463548FEF73CFC0346642B8D
:1018FC002CDC3248FEF72EFC034619462F48FEF727
:10190C0031FC0346002B21DB07F070FC002100208A
:10191C0007F083FC2A4807F0DCFC2848FEF71AFC89
:10192C00034619462548FEF71DFC0346254A13605D
:10193C00254B01221A60254B07221A60244B0122E9
:10194C001A604FF47A7003F0F7F91CE007F04EFCC4
:10195C000021002007F061FC1E4807F0BAFC0021B2
:10196C00012007F05AFC1C4807F0B3FC164B01226F
:10197C001A60164B06221A60154B01221A604FF49E
:10198C007A7003F0D9F900237B6007E00B4A7B687F
:10199C00134400221A707B6801337B607B680F2B29
:1019AC00F4D900BF0D4B1B6801330C4A136000E0E7
:1019BC0000BF00BF1837BD4680BD00BFE80B00203C
:1019CC0088A700081C020020340200202C020020F2
:1019DC00300200208CA7000898A70008F80B002004
:1019EC0080B500AF03F046F900F0C8F800F04AFBF0
:1019FC0000F02AFB00F01AF900F056F900F092F909
:101A0C0000F0BEF900F00EFA00F058FA00F0A4FA5B
:101A1C0000F0F0FA072003F004FF434805F092FEB3
:101A2C00424805F08FFE4FF496724149414806F04A
:101A3C00E6FA414805F034FE07F00EFC07F0D6FB41
:101A4C000321002007F0E9FB3C4807F042FCFEF7BD
:101A5C000DFF3B4805F024FEFFF742F9FFF740F974
:101A6C00FFF796FA374B1B68002BF5D0354B00224D
:101A7C001A6002F097FD0A2003F05EF932493348F0
:101A8C0002F038FD304B9B781A462F4BDB783049EF
:101A9C00304807F033FC2C4B1B781A462A4B5B78EA
:101AAC002D492E4807F02AFC2D4803F041FA32202C
:101ABC0003F042F92B4803F03BFA322003F03CF9D7
:101ACC00274803F00FFB03461A46274B1A603220B7
:101ADC0003F032F9234803F005FB03461A46234B67
:101AEC001A60322003F028F91D4803F0CFFA1D4884
:101AFC0003F0CCFAFFF7F4F8FFF74AFA1C4B1B681B
:101B0C00002B0BD11B4B1B6801331A4A13604FF48B
:101B1C000051194804F0B1FBFEF7FCFBFFF7E0F8AD
:101B2C00FFF736FA98E700BFC00300200804002036
:101B3C00240500209804002050040020C4A70008AD
:101B4C0078030020F80A0020B40A0020500A002074
:101B5C00D0A70008C80A0020E4A70008DC0A00206F
:101B6C00C4020020F4020020F00A0020F40A002035
:101B7C00C80B0020FC0B00200010014080B594B075
:101B8C0000AF07F1280328220021184607F002FCB9
:101B9C0007F1140300221A605A609A60DA601A6125
:101BAC003B1D00221A605A609A60DA600223BB6205
:101BBC000123BB631023FB6302237B640023BB6400
:101BCC004FF46013FB6407F12803184605F052F834
:101BDC000346002B01D002F043FD0F237B6102234F
:101BEC00BB610023FB614FF480633B6200237B628B
:101BFC0007F114030221184605F0BEFA0346002B28
:101C0C0001D002F02DFD02237B604FF40043FB60FA
:101C1C003B1D184605F03EFC0346002B01D002F09C
:101C2C001FFD00BF5037BD4680BD000080B584B09D
:101C3C0000AF3B1D00221A605A609A60184B194A7B
:101C4C001A60174B00229A60154B01221A73144B21
:101C5C0000221A75124B4FF46022DA61104B0022ED
:101C6C005A600F4B01221A610D4803F089F80346A4
:101C7C00002B01D002F0F4FC06237B600123BB6037
:101C8C000023FB603B1D1946054803F009FB034686
:101C9C00002B01D002F0E4FC00BF1037BD4680BD24
:101CAC00C40200200024014080B584B000AF3B1D6D
:101CBC0000221A605A609A60184B194A1A60174B26
:101CCC0000229A60154B01221A73144B00221A75CC
:101CDC00124B4FF46022DA61104B00225A600F4B0A
:101CEC0001221A610D4803F04BF80346002B01D07A
:101CFC0002F0B6FC07237B600123BB600023FB6072
:101D0C003B1D1946054803F0CBFA0346002B01D0C6
:101D1C0002F0A6FC00BF1037BD4680BDF4020020C7
:101D2C000028014080B500AF124B134A1A60114BCA
:101D3C00124A5A600F4B00229A600E4B0022DA6056
:101D4C000C4B4FF480421A610A4B00225A61094B2A
:101D5C0000229A61074B0022DA61064B00221A62BC
:101D6C00044804F0BBFA0346002B01D002F078FCC7
:101D7C0000BF80BD2403002000540040A086010059
:101D8C0080B586B000AF07F1080300221A605A60D4
:101D9C009A60DA603B4600221A605A601F4B204A58
:101DAC001A601E4B4FF6FF125A601C4B00229A60B1
:101DBC001A4B47F23052DA60184B00221A61174B5B
:101DCC0000225A61154B80229A61144805F018FCC8
:101DDC000346002B01D002F043FC4FF48053BB6050
:101DEC0007F1080319460D4805F0E2FD0346002BE8
:101DFC0001D002F035FC00233B6000237B603B46A6
:101E0C001946064805F0B8FF0346002B01D002F036
:101E1C0027FC00BF1837BD4680BD00BF78030020EB
:101E2C00002C014080B586B000AF07F108030022FA
:101E3C001A605A609A60DA603B4600221A605A6057
:101E4C001D4B4FF080421A601B4B3F225A601A4BBD
:101E5C0000229A60184B4EF66022DA60164B002274
:101E6C001A61154B80229A61134805F0C9FB034691
:101E7C00002B01D002F0F4FB4FF48053BB6007F150
:101E8C00080319460C4805F093FD0346002B01D0BE
:101E9C0002F0E6FB00233B6000237B603B461946C7
:101EAC00054805F069FF0346002B01D002F0D8FB72
:101EBC0000BF1837BD4680BDC003002080B586B07A
:101ECC0000AF07F1080300221A605A609A60DA60CA
:101EDC003B4600221A605A601D4B1E4A1A601C4B6E
:101EEC004FF6FF125A601A4B00229A60184B4FF4AF
:101EFC007A72DA60164B00221A61154B80229A61B5
:101F0C00134805F07DFB0346002B01D002F0A8FB23
:101F1C004FF48053BB6007F1080319460C4805F0D9
:101F2C0047FD0346002B01D002F09AFB00233B60D7
:101F3C0000237B603B461946054805F01DFF034610
:101F4C00002B01D002F08CFB00BF1837BD4680BDC2
:101F5C00080400200004004080B586B000AF07F1F3
:101F6C00080300221A605A609A60DA603B4600222D
:101F7C001A605A601D4B1E4A1A601C4B4FF6FF121A
:101F8C005A601A4B00229A60184B4FF47A72DA603E
:101F9C00164B00221A61154B80229A61134805F0EA
:101FAC002FFB0346002B01D002F05AFB4FF4805359
:101FBC00BB6007F1080319460C4805F0F9FC034611
:101FCC00002B01D002F04CFB00233B6000237B6014
:101FDC003B461946054805F0CFFE0346002B01D0C1
:101FEC0002F03EFB00BF1837BD4680BD50040020F8
:101FFC000008004080B500AF114B124A1A60104B1C
:10200C004FF4E1325A600E4B00229A600C4B0022C6
:10201C00DA600B4B00221A61094B0C225A61084BF7
:10202C0000229A61064B0022DA61054805F014FF84
:10203C000346002B01D002F013FB00BF80BD00BF94
:10204C00980400200038014080B582B000AF0C4BE2
:10205C005B690B4A43F001035361094B5B6903F065
:10206C0001037B607B68002200210F2003F0AFFB93
:10207C000F2003F0C8FB00BF0837BD4680BD00BF72
:10208C000010024080B588B000AF07F110030022A9
:10209C001A605A609A60DA60704B9B696F4A43F021
:1020AC00100393616D4B9B6903F01003FB60FB689D
:1020BC006A4B9B69694A43F020039361674B9B69A8
:1020CC0003F02003BB60BB68644B9B69634A43F01D
:1020DC0004039361614B9B6903F004037B607B6891
:1020EC005E4B9B695D4A43F0080393615B4B9B69B4
:1020FC0003F008033B603B6800224FF40051584842
:10210C0004F0A3F8002241F60101564804F09DF8B2
:10211C00002243F20171544804F097F84FF4005335
:10212C003B6101237B610023BB610223FB6107F14F
:10213C00100319464A4803F031FE41F601033B6196
:10214C0001237B610123BB610223FB6107F11003B7
:10215C001946444803F022FE02233B61434B7B614A
:10216C000123BB6107F1100319463E4803F016FE2C
:10217C003C233B613E4B7B610123BB6107F11003A8
:10218C001946384803F00AFE43F201733B61012300
:10219C007B610123BB610223FB6107F1100319462C
:1021AC00314803F0FBFD4FF400633B61314B7B6125
:1021BC000123BB6107F1100319462B4803F0EEFD18
:1021CC004CF218033B6100237B610123BB6107F1D7
:1021DC0010031946244803F0E1FD4FF480733B6172
:1021EC00244B7B610123BB6107F1100319461D4889
:1021FC0003F0D4FD00220421072003F0E8FA0720A5
:10220C0003F001FB00220A21082003F0E0FA082069
:10221C0003F0F9FA00220A21092003F0D8FA092068
:10222C0003F0F1FA00220A210A2003F0D0FA0A2066
:10223C0003F0E9FA00220821172003F0C8FA17204E
:10224C0003F0E1FA00220A21282003F0C0FA28202A
:10225C0003F0D9FA00BF2037BD4680BD0010024004
:10226C000010014000080140000C0140000031103A
:10227C000000211000001110B0B5BAB006AF7860A4
:10228C007B681B68844A934221D1844B01221A60DB
:10229C00834B01221A60834B1B68012B17D1824B95
:1022AC001B680133804A13607F4B1B68962B0EDD35
:1022BC007C4B00221A607D4B01221A607A4B002263
:1022CC001A607B4B01221A607A4B01221A607B68E0
:1022DC001B68B3F1804F08D1774BD3E90023541C12
:1022EC0043F10005744BC3E900457B681B68734AD6
:1022FC00934240F0F381724B1B68012B05D1704B5C
:10230C0000221A606F4805F01DFA6F4B1B68012BF9
:10231C0040F0E4816C4B00221A606C4B1B68013B53
:10232C00052B00F2D88101A252F823F051230008AA
:10233C00FF23000839250008DD2500089526000834
:10234C00B92600080421624803F068FF0346012BFC
:10235C0035D1604B1B68604A1360604B1B68604A48
:10236C001360604B1B68604A1360604B1B68604ACB
:10237C001360604B1B68604A13604D4B01221A605E
:10238C005E4B00221A605E4B01221A605D4B0122EB
:10239C001A6007F17C0300221A605A609A60DA60B6
:1023AC000423FB67584BC7F880300123C7F88430EF
:1023BC0007F17C031946464803F0F0FC8BE14F4BC8
:1023CC0000221A604E4B01221A6007F16C030022A6
:1023DC001A605A609A60DA600423FB664A4B3B67CA
:1023EC0001237B6707F16C031946394803F0D6FCCF
:1023FC0071E10821364803F011FF0346012B30D15F
:10240C00424B1B68424A1360424B1B68424A1360A2
:10241C00424B1B68424A1360424B1B68424A136092
:10242C00344B1B68344A1360214B01221A60334B26
:10243C0000221A60324B01221A6007F15C03002261
:10244C001A605A609A60DA600823FB652E4B3B6673
:10245C0001237B6607F15C0319461D4803F09EFCC3
:10246C0039E1264B00221A60254B01221A6007F134
:10247C004C0300221A605A609A60DA600823FB64ED
:10248C00214B3B6501237B6507F14C031946104832
:10249C0003F084FC1FE100BF002C0140F80A00206F
:1024AC00E8090020600B0020B80B00202C02002053
:1024BC003002002034020020C00A0020000400403A
:1024CC00C00B002008040020BC0B0020C40B002013
:1024DC0000080140780B0020040A00207C0B00202F
:1024EC00080A0020800B00200C0A0020840B00201E
:1024FC00EC090020740B0020FC0A0020B40B002017
:10250C00440200204002002000002110880B002013
:10251C00100A00208C0B0020140A0020900B0020C5
:10252C00180A0020A40B0020F00900201021844878
:10253C0003F074FE0346012B30D1824B1B68824A98
:10254C001360824B1B68824A1360824B1B68824A61
:10255C001360824B1B68824A1360824B1B68824A51
:10256C001360824B01221A60814B00221A60814B4E
:10257C0001221A6007F13C0300221A605A609A602B
:10258C00DA601023FB637C4B3B6401237B6407F113
:10259C003C0319466A4803F001FC9CE0744B002292
:1025AC001A60744B01221A6007F12C0300221A6086
:1025BC005A609A60DA601023FB626F4B3B63012315
:1025CC007B6307F12C0319465D4803F0E7FB82E0BF
:1025DC0020215B4803F022FE0346012B3AD1674BC6
:1025EC001A68674B1B689A4207D0664B1B6801330D
:1025FC00644A1360644B01221A60614B1B685F4A8A
:10260C001360624B1B68624A1360624B1B68624A20
:10261C001360544B1B68544A1360544B01221A60CC
:10262C00534B00221A60534B01221A6007F11C0312
:10263C0000221A605A609A60DA602023FB614E4BCC
:10264C003B6201237B6207F11C0319463C4803F0F3
:10265C00A5FB40E0464B00221A60464B01221A6053
:10266C0007F10C0300221A605A609A60DA6020238A
:10267C00FB60414B3B6101237B6107F10C03194665
:10268C002F4803F08BFB26E04FF480712C4803F0AD
:10269C00C5FD0346012B1BD1404B1B68012B17D1E9
:1026AC003F4B01221A60FEF71BFB11E04FF4006157
:1026BC003C4803F0B3FD0346002B0BD0374B1B6893
:1026CC00012B07D1364B00221A60FEF709FB01E003
:1026DC0000BF00E000BF344805F034F87B681B688D
:1026EC00324A934240F012874FF40051304803F0C5
:1026FC00C4FD0023C7F8CC300BE02E4AD7F8CC3001
:10270C0013441B78002B0AD1D7F8CC300133C7F80F
:10271C00CC30D7F8CC30B3F5967FEED300E000BFC9
:10272C00254805F091FC4FF496722249224805F099
:10273C0066FC224B00221A600023C7F8C83085E1E2
:10274C0000080140940B00201C0A0020980B00206C
:10275C00200A00209C0B0020240A0020A80B00203B
:10276C00F4090020740B0020FC0A00203002002029
:10277C00B40B002044020020000021102C0A002081
:10278C00AC0B00202C02002034020020A00B0020F7
:10279C00280A0020B00B0020300A0020600B00201B
:1027AC0020020020000C014008040020000800401A
:1027BC00001001402405002098040020D4090020BA
:1027CC00834AD7F8C83013441B780D2B0BD1D7F89C
:1027DC00C83001337E4AD35C0A2B04D17D4B1B6875
:1027EC0001337C4A13607A4AD7F8C83013441B78FB
:1027FC000D2B00F02581764AD7F8C83013441B788E
:10280C000A2B00F01D81734B1B680B2B00F2D08040
:10281C0001A252F823F000BF5528000873280008C5
:10282C0091280008AF280008CD280008EB280008E4
:10283C0009290008272900084529000863290008F0
:10284C00812900089F290008634B1B686049D7F851
:10285C00C8200A441178614AD1545F4B1B6801337C
:10286C005D4A1360EDE05E4B1B685949D7F8C820F0
:10287C000A4411785B4AD154594B1B680133584AAE
:10288C001360DEE0584B1B685149D7F8C8200A4446
:10289C001178564AD154544B1B680133524A136079
:1028AC00CFE0534B1B684A49D7F8C8200A4411782B
:1028BC00504AD1544E4B1B6801334D4A1360C0E053
:1028CC004D4B1B684249D7F8C8200A4411784B4A33
:1028DC00D154494B1B680133474A1360B1E0484B54
:1028EC001B683B49D7F8C8200A441178454AD15493
:1028FC00434B1B680133424A1360A2E0424B1B68F6
:10290C003349D7F8C8200A441178404AD1543E4B79
:10291C001B6801333C4A136093E03D4B1B682C4908
:10292C00D7F8C8200A4411783A4AD154384B1B685E
:10293C000133374A136084E0374B1B682449D7F8BE
:10294C00C8200A441178354AD154334B1B680133E3
:10295C00314A136075E0324B1B681D49D7F8C8200B
:10296C000A4411782F4AD1542D4B1B6801332C4A41
:10297C00136066E02C4B1B681549D7F8C8200A4435
:10298C0011782A4AD154284B1B680133264A13600C
:10299C0057E0274B1B680E49D7F8C8200A4411781A
:1029AC00244AD154224B1B680133214A136048E05E
:1029BC00214B1B680649D7F8C8200A4411781F4AD6
:1029CC00D1541D4B1B6801331B4A136039E000BF07
:1029DC0024050020D40900206009002050060020A6
:1029EC00640900208C06002068090020C80600201D
:1029FC006C0900200407002070090020400700200B
:102A0C00740900207C07002078090020B8070020FA
:102A1C007C090020F40700208009002030080020E9
:102A2C00840900206C08002088090020A8080020D8
:102A3C008C090020E40800209009002020090020C7
:102A4C0000BFD7F8C8300133C7F8C830D7F8C83042
:102A5C00B3F5967FFFF4B4AE954B1B783E2B02D1A9
:102A6C00944B01221A60944B1B783E2B02D1914B54
:102A7C0001221A60914B1B783E2B02D18D4B012207
:102A8C001A608F4B1B783E2B02D18A4B01221A60A5
:102A9C008C4B1B783E2B02D1864B01221A608A4B41
:102AAC001B783E2B02D1834B01221A60874B1B787B
:102ABC003E2B02D17F4B01221A60854B1B783E2B9B
:102ACC0002D17C4B01221A60824B1B783E2B02D127
:102ADC00784B01221A60804B1B783E2B02D1754B30
:102AEC0001221A607D4B1B783E2B02D1714B0122C7
:102AFC001A607B4B1B783E2B02D16E4B01221A6065
:102B0C00784B1B783E2B02D16A4B01221A60764916
:102B1C006748FDF715FB0346002B05D1734B0122CB
:102B2C001A60734B01221A606F496348FDF708FB6A
:102B3C000346002B05D16D4B01221A606C4B012210
:102B4C001A6069495D48FDF7FBFA0346002B05D175
:102B5C00664B01221A60664B01221A606249584882
:102B6C00FDF7EEFA0346002B05D1604B01221A60EB
:102B7C005F4B01221A605C495248FDF7E1FA0346AB
:102B8C00002B05D1594B01221A60594B01221A60B6
:102B9C0055494D48FDF7D4FA0346002B05D1534B4C
:102BAC0001221A60524B01221A604F494748FDF727
:102BBC00C7FA0346002B05D14C4B01221A604C4B33
:102BCC0001221A6048494248FDF7BAFA0346002B25
:102BDC0005D1464B01221A60454B01221A6042492D
:102BEC003C48FDF7ADFA0346002B05D13F4B0122C3
:102BFC001A603F4B01221A603B493748FDF7A0FA97
:102C0C000346002B05D1394B01221A60384B0122A7
:102C1C001A6035493148FDF793FA0346002B05D16C
:102C2C00324B01221A60324B01221A602E492C4879
:102C3C00FDF786FA0346002B05D12C4B01221A60B6
:102C4C002B4B01221A6028492648FDF779FA0346D6
:102C5C00002B05D1254B01221A60254B01221A604D
:102C6C00244B00931023244A3C211148FDF714FBFC
:102C7C00C7F88C00D7F88C30002B5ED11F4B049317
:102C8C001F4B03931F4B02931F4B01931F4B00933E
:102C9C001F4B204A2049084806F050FB1F4B1B686D
:102CAC00002B42D11E4B1B6847F22F525A6239E05F
:102CBC0050060020D80B00208C060020C8060020EF
:102CCC0004070020400700207C070020B8070020E4
:102CDC00F4070020300800206C080020A808002011
:102CEC00E40800202009002000020020C809002070
:102CFC00CC09002094090020040200201C020020B2
:102D0C00180200201402002020020020F4090020E8
:102D1C00F0090020EC090020F4A70008D40B0020D7
:102D2C0078030020954B01221A60954B01221A6002
:102D3C00944B1B680133934A1360934B00931023FD
:102D4C00924A3C219248FDF7A7FAC7F88C00D7F8B5
:102D5C008C30002B23D18F4B04938F4B03938F4BD1
:102D6C0002938F4B01938F4B00938F4B8F4A90495B
:102D7C00904806F0E3FA904B1B68002B07D18F4B61
:102D8C001B6847F22F525A627C4B01221A607C4B13
:102D9C0001221A607B4B1B6801337A4A13607A4B11
:102DAC0000931023794A3C218248FDF775FAC7F845
:102DBC008C00D7F88C30002B23D1764B0493764BB8
:102DCC000393764B0293764B0193764B0093764BA1
:102DDC00764A77497A4806F0B1FA774B1B68002B94
:102DEC0007D1764B1B6847F22F525A62634B012274
:102DFC001A60634B01221A60624B1B680133614AF3
:102E0C001360614B00931023604A3C216C48FDF722
:102E1C0043FAC7F88C00D7F88C30002B23D15D4BCC
:102E2C0004935D4B03935D4B02935D4B01935D4BA0
:102E3C0000935D4B5D4A5E49624806F07FFA5E4B3B
:102E4C001B68002B07D15D4B1B6847F22F525A624F
:102E5C004A4B01221A604A4B01221A60494B1B68EB
:102E6C000133484A1360484B00931023474A3C21D6
:102E7C005448FDF711FAC7F88C00D7F88C30002BAA
:102E8C0023D1444B0493444B0393444B0293444B44
:102E9C000193444B0093444B444A45494A4806F03D
:102EAC004DFA454B1B68002B07D1444B1B6847F26E
:102EBC002F525A62314B01221A60314B01221A6097
:102ECC00304B1B6801332F4A13602F4B0093102398
:102EDC002E4A3C213C48FDF7DFF9C7F88C00D7F8A7
:102EEC008C30002B23D12B4B04932B4B03932B4B6C
:102EFC0002932B4B01932B4B00932B4B2B4A2C49BE
:102F0C00324806F01BFA2C4B1B68002B07D12B4BBD
:102F1C001B6847F22F525A62184B01221A60184B49
:102F2C0001221A60174B1B680133164A1360164BAB
:102F3C0000931023154A3C212448FDF7ADF9C7F83E
:102F4C008C00D7F88C30002B50D1124B0493124BC1
:102F5C000393124B0293124B0193124B0093124B9F
:102F6C00124A13491A4806F0E9F9134B1B68002B57
:102F7C0034D1124B1B6847F22F522BE0E40B00208C
:102F8C00300200205C09002094090020040200207B
:102F9C008C0600201C0200201802002014020020C5
:102FAC0020020020F4090020F0090020EC09002088
:102FBC00F4A70008C8060020D40B002078030020DA
:102FCC0004070020400700207C070020B8070020E1
:102FDC00F40700205A62964B01221A60954B01228D
:102FEC001A60954B1B680133934A1360934B009303
:102FFC001023934A3C219348FDF74EF9C7F88C00F7
:10300C00D7F88C30002B23D18F4B04938F4B039329
:10301C008F4B02938F4B01938F4B00938F4B904AA6
:10302C009049914806F08AF9904B1B68002B07D108
:10303C008F4B1B6847F22F525A627D4B01221A604C
:10304C007C4B01221A607C4B1B6801337A4A13605B
:10305C007A4B009310237A4A3C218348FDF71CF9E4
:10306C00C7F88C00D7F88C30002B23D1764B049307
:10307C00764B0393764B0293764B0193764B0093EE
:10308C00764B774A77497B4806F058F9774B1B68A3
:10309C00002B07D1764B1B6847F22F525A62644BB8
:1030AC0001221A60634B01221A60634B1B680133C7
:1030BC00614A1360614B00931023614A3C216D48B7
:1030CC00FDF7EAF8C7F88C00D7F88C30002B23D129
:1030DC005D4B04935D4B03935D4B02935D4B0193EE
:1030EC005D4B00935D4B5E4A5E49634806F026F9E2
:1030FC005E4B1B68002B07D15D4B1B6847F22F52B0
:10310C005A624B4B01221A604A4B01221A604A4BFD
:10311C001B680133484A1360484B00931023484AFC
:10312C003C215448FDF7B8F8C7F88C00D7F88C3020
:10313C00002B23D1444B0493444B0393444B0293F5
:10314C00444B0193444B0093444B454A45494A48F0
:10315C0006F0F4F8454B1B68002B07D1444B1B6859
:10316C0047F22F525A62324B01221A60314B012224
:10317C001A60314B1B6801332F4A13602F4B00939D
:10318C0010232F4A3C213C48FDF786F8C7F88C00E9
:10319C00D7F88C30002B23D12B4B04932B4B039360
:1031AC002B4B02932B4B01932B4B00932B4B2C4A09
:1031BC002C49324806F0C2F82C4B1B68002B07D167
:1031CC002B4B1B6847F22F525A62194B01221A6083
:1031DC00184B01221A60184B1B680133164A1360F6
:1031EC00164B00931023164A3C212448FDF754F843
:1031FC00C7F88C00D7F88C30002B4FD1124B0493AE
:10320C00124B0393124B0293124B0193124B0093EC
:10321C00124B134A13491A4806F090F8134B1B68CB
:10322C00002B33D1124B1B6847F22F522AE000BF00
:10323C00E40B0020300200205C09002094090020DF
:10324C0004020020F40700201C02002018020020B9
:10325C001402002020020020F4090020F0090020B4
:10326C00EC090020F4A7000830080020D40B002043
:10327C00780300206C080020A8080020E408002037
:10328C00200900205A62A34B01221A60A24B012292
:10329C001A60A24B1B680133A04A1360A04B00229A
:1032AC001A60A04B00221A609F4B00221A609F4BA1
:1032BC0000221A609E4B00221A609E4B00221A605C
:1032CC009D4B00221A609D4B00221A609C4B0022E1
:1032DC001A609C4B00221A609B4B00221A609B4B7D
:1032EC0000221A609A4B00221A609A4B00221A6034
:1032FC00994B00221A600023C7F8C4300AE0974AA1
:10330C00D7F8C430134400221A70D7F8C4300133F4
:10331C00C7F8C430D7F8C430B3F5967FEFD3002389
:10332C00C7F8C0300AE08E4AD7F8C03013440022E8
:10333C001A70D7F8C0300133C7F8C030D7F8C03096
:10334C003B2BF0D90023C7F8BC300AE0854AD7F8EC
:10335C00BC30134400221A70D7F8BC300133C7F8C4
:10336C00BC30D7F8BC303B2BF0D90023C7F8B830B1
:10337C000AE07D4AD7F8B830134400221A70D7F807
:10338C00B8300133C7F8B830D7F8B8303B2BF0D988
:10339C000023C7F8B4300AE0744AD7F8B4301344A9
:1033AC0000221A70D7F8B4300133C7F8B430D7F80C
:1033BC00B4303B2BF0D90023C7F8B0300AE06C4A8C
:1033CC00D7F8B030134400221A70D7F8B03001335C
:1033DC00C7F8B030D7F8B0303B2BF0D90023C7F882
:1033EC00AC300AE0634AD7F8AC30134400221A70B0
:1033FC00D7F8AC300133C7F8AC30D7F8AC303B2B36
:10340C00F0D90023C7F8A8300AE05B4AD7F8A830F7
:10341C00134400221A70D7F8A8300133C7F8A8302B
:10342C00D7F8A8303B2BF0D90023C7F8A4300AE01A
:10343C00524AD7F8A430134400221A70D7F8A4309B
:10344C000133C7F8A430D7F8A4303B2BF0D90023B4
:10345C00C7F8A0300AE04A4AD7F8A030134400223B
:10346C001A70D7F8A0300133C7F8A030D7F8A030C5
:10347C003B2BF0D90023C7F89C300AE0414AD7F81F
:10348C009C30134400221A70D7F89C300133C7F8D3
:10349C009C30D7F89C303B2BF0D90023C7F89830E0
:1034AC000AE0394AD7F89830134400221A70D7F83A
:1034BC0098300133C7F89830D7F898303B2BF0D9B7
:1034CC000023C7F894300AE0304AD7F894301344FC
:1034DC0000221A70D7F894300133C7F89430D7F81B
:1034EC0094303B2BF0D90023C7F890300AE0284ADF
:1034FC00D7F89030134400221A70D7F8903001336B
:10350C00C7F89030D7F890303B2BF0D900BFD037AC
:10351C00BD46B0BDE40B0020300200205C09002049
:10352C006009002064090020680900206C09002053
:10353C007009002074090020780900207C09002003
:10354C008009002084090020880900208C090020B3
:10355C0090090020D0090020D40900202405002067
:10356C00500600208C060020C8060020040700200E
:10357C00400700207C070020B8070020F40700203B
:10358C00300800206C080020A8080020E408002067
:10359C002009002080B5C2B000AF024607F5847345
:1035AC00A3F581731A8007F58473A3F581731B88C7
:1035BC00042B40F0BC818B4B1B68012B40F0A68187
:1035CC0001F0B0FB0346884A1360874B1A68874B9F
:1035DC001B68D21A864B1B689A4204D8854B1B6811
:1035EC00012B40F093810421834802F017FE03461F
:1035FC00002B40F0878100224FF480717F4802F04D
:10360C0024FE01224FF400717C4802F01EFE0122C0
:10361C004FF48061794802F018FE012201217748AD
:10362C0002F013FE0421744802F0F8FD0346002B4F
:10363C0033D1734B1B7883F00103DBB2002B2CD0FE
:10364C0007F1F80300221A605A609A60DA600423CA
:10365C00C7F8F8306B4BC7F8FC300123C7F80031C2
:10366C0007F1F8031946644802F098FB664B1B6897
:10367C00664A1360664B1B68664A1360634B1B6893
:10368C000133624A1360634B01221A60624B0122C0
:10369C001A60544B00221A601DE101224FF4807114
:1036AC00564802F0D2FD00224FF40071534802F04C
:1036BC00CCFD01224FF48061504802F0C6FD01227E
:1036CC0001214E4802F0C1FD04214B4802F0A6FD39
:1036DC000346002B33D14A4B1B7883F00103DBB23A
:1036EC00002B2CD007F1E80300221A605A609A6074
:1036FC00DA600423C7F8E830424BC7F8EC300123FA
:10370C00C7F8F03007F1E80319463B4802F046FBD6
:10371C00424B1B68424A13603D4B1B683D4A136089
:10372C003F4B1B6801333E4A13603A4B02221A602E
:10373C00394B01221A602B4B00221A60CBE001227C
:10374C004FF480712D4802F080FD01224FF400717E
:10375C002A4802F07AFD00224FF48061274802F0DB
:10376C0074FD01220121254802F06FFD042122483D
:10377C0002F054FD0346002B58D1214B1B7883F0EB
:10378C000103DBB2002B51D007F1D80300221A60E1
:10379C005A609A60DA600423C7F8D830194BC7F81E
:1037AC00DC300123C7F8E03007F1D8031946124882
:1037BC0002F0F4FA1B4B1B681B4A1360144B1B687A
:1037CC00144A1360184B1B680133174A1360114BD2
:1037DC0003221A60104B01221A60024B00221A605D
:1037EC0079E000BF44020020000A0020FC09002000
:1037FC00280200204002002000080140000C01407B
:10380C00640B002000001110040A0020780B00202B
:10381C00FC0A0020740B0020B40B0020080A0020C6
:10382C007C0B00200C0A0020800B002001224FF49E
:10383C008071A54802F009FD01224FF40071A248E5
:10384C0002F003FD01224FF480619F4802F0FDFC61
:10385C00002201219C4802F0F8FC04219B4802F054
:10386C00DDFC0346002B36D1994B1B7883F001030A
:10387C00DBB2002B2FD0974B1B68002B2BD007F102
:10388C00C80300221A605A609A60DA600423C7F8F1
:10389C00C830914BC7F8CC300123C7F8D03007F1B2
:1038AC00C8031946894802F079FA8C4B1B688C4A7C
:1038BC0013608C4B1B688C4A1360894B1B6801335B
:1038CC00874A1360884B0A221A60884B01221A60BF
:1038DC00874B00221A6000224FF480717A4802F064
:1038EC00B4FC00224FF40071774802F0AEFC0022C9
:1038FC004FF48061744802F0A8FC00220121724848
:10390C0002F0A3FC7B4B1B687B4A1360774B1B6854
:10391C00012B0CD1794B1B6800225A62774803F0BB
:10392C00BFFE774B01221A60764B01221A6007F515
:10393C008473A3F581731B88082B40F0C4816C4BF6
:10394C001B68012B40F0AE8101F0ECF90346694A8B
:10395C001360684B1A68684B1B68D21A6A4B1B6859
:10396C009A4204D8694B1B68012B40F09B810821BB
:10397C00564802F053FC0346002B40F08F81002286
:10398C004FF48071504802F060FC01224FF400713A
:10399C004D4802F05AFC01224FF480614A4802F073
:1039AC0054FC01220121484802F04FFC08214748F1
:1039BC0002F034FC0346002B33D1454B1B7883F0CB
:1039CC000103DBB2002B2CD007F1B80300221A60E4
:1039DC005A609A60DA600823C7F8B8303E4BC7F8D3
:1039EC00BC300123C7F8C03007F1B803194637487B
:1039FC0002F0D4F9464B1B68464A1360394B1B68DE
:103A0C00394A1360434B1B680133424A1360364BEF
:103A1C0004221A60354B01221A60354B00221A60C1
:103A2C0025E101224FF48071274802F00EFC0022A0
:103A3C004FF40071244802F008FC01224FF480611D
:103A4C00214802F002FC012201211F4802F0FDFB7B
:103A5C0008211E4802F0E2FB0346002B60D11C4BF0
:103A6C001B7883F00103DBB2002B59D007F1A803BC
:103A7C0000221A605A609A60DA600823C7F8A830EE
:103A8C00154BC7F8AC300123C7F8B03007F1A803C9
:103A9C0019460E4802F082F91F4B1B681F4A13602F
:103AAC00104B1B68104A13601C4B1B6801331B4ADC
:103ABC0013600D4B05221A600C4B01221A600C4B43
:103ACC0000221A60D3E000BF000C01400008014046
:103ADC00640B0020600B002000001110EC0900208A
:103AEC00840B0020FC0A0020740B0020B40B002077
:103AFC0044020020000A0020FC09002008040020D9
:103B0C00BC0B0020C40B0020280200204002002027
:103B1C00100A0020880B0020140A00208C0B0020B7
:103B2C0001224FF48071A84802F08FFB01224FF460
:103B3C000071A54802F089FB00224FF48061A24875
:103B4C0002F083FB012201219F4802F07EFB082139
:103B5C009E4802F063FB0346002B33D19C4B1B7831
:103B6C0083F00103DBB2002B2CD007F19803002269
:103B7C001A605A609A60DA600823C7F89830954B3F
:103B8C00C7F89C300123C7F8A03007F198031946F9
:103B9C008E4802F003F9904B1B68904A1360904BCF
:103BAC001B68904A13608D4B1B6801338B4A136062
:103BBC008C4B06221A608C4B01221A608B4B002214
:103BCC001A6054E001224FF480717F4802F03DFBF3
:103BDC0001224FF400717C4802F037FB01224FF4B4
:103BEC008061794802F031FB00220121764802F015
:103BFC002CFB0821754802F011FB0346002B36D133
:103C0C00734B1B7883F00103DBB2002B2FD0784B66
:103C1C001B68002B2BD007F1880300221A605A6016
:103C2C009A60DA600823C7F888306A4BC7F88C3082
:103C3C000123C7F8903007F188031946634802F056
:103C4C00ADF86C4B1B686C4A1360654B1B68654A7E
:103C5C001360694B1B680133674A1360614B0A227E
:103C6C001A60614B01221A60604B00221A6000221C
:103C7C004FF48071544802F0E8FA00224FF40071BE
:103C8C00514802F0E2FA00224FF480614E4802F0F3
:103C9C00DCFA002201214C4802F0D7FA574B1B6882
:103CAC00574A1360504B1B68012B0CD1554B1B68AA
:103CBC0000225A62534803F0F3FC534B01221A6062
:103CCC00524B02221A6007F58473A3F581731B888B
:103CDC00102B40F0D981454B1B68012B40F0C38160
:103CEC0001F020F80346454A1360444B1A68444BD4
:103CFC001B68D21A464B1B689A4204D8454B1B686A
:103D0C00012B40F0B0811021304802F087FA0346B5
:103D1C00002B40F0A4812E4B1B7883F00103DBB207
:103D2C00002B00F09C8100224FF48071264802F099
:103D3C008CFA01224FF40071234802F086FA01221A
:103D4C004FF48061204802F080FA012201211E48C4
:103D5C0002F07BFA10211D4802F060FA0346002B9A
:103D6C005ED11B4B1B7883F00103DBB2002B57D0C9
:103D7C0007F1780300221A605A609A60DA60102307
:103D8C00BB67144BFB670123C7F8803007F178033E
:103D9C0019460E4802F002F81F4B1B681F4A1360AD
:103DAC000F4B1B680F4A13601C4B1B6801331B4ADB
:103DBC0013600C4B07221A600B4B01221A600B4B41
:103DCC0000221A6034E100BF000C014000080140E1
:103DDC00640B002000001110180A0020900B00202A
:103DEC00FC0A0020740B0020B40B002044020020BD
:103DFC00600B0020F0090020A40B0020000A00201A
:103E0C00FC09002008040020BC0B0020C40B00207F
:103E1C0028020020400200201C0A0020940B0020E5
:103E2C0001224FF480714D4802F00FFA00224FF43A
:103E3C0000714A4802F009FA01224FF480614748A8
:103E4C0002F003FA01220121444802F0FEF910218C
:103E5C00434802F0E3F90346002B30D1414B1B7869
:103E6C0083F00103DBB2002B29D007F16803002299
:103E7C001A605A609A60DA601023BB663A4BFB6694
:103E8C0001233B6707F168031946354801F086FFAB
:103E9C00364B1B68364A1360364B1B68364A136028
:103EAC00334B1B680133324A1360334B08221A60C0
:103EBC00324B01221A60324B00221A60B8E0012208
:103ECC004FF48071254802F0C0F901224FF40071C3
:103EDC00224802F0BAF900224FF480611F4802F028
:103EEC00B4F9012201211D4802F0AFF910211C4840
:103EFC0002F094F90346002B48D11A4B1B7883F03F
:103F0C000103DBB2002B41D007F1580300221A60E9
:103F1C005A609A60DA601023BB65134BFB65012372
:103F2C003B6607F1580319460D4801F037FF154B56
:103F3C001B68154A13600F4B1B680F4A1360124B1A
:103F4C001B680133104A13600B4B09221A600B4B90
:103F5C0001221A600A4B00221A6069E0000C014031
:103F6C0000080140640B002000001110200A002002
:103F7C00980B0020FC0A0020740B0020B40B0020CE
:103F8C0044020020240A00209C0B002001224FF444
:103F9C0080719F4802F059F901224FF400719C483E
:103FAC0002F053F901224FF48061994802F04DF967
:103FBC0000220121964802F048F91021954802F0A0
:103FCC002DF90346002B33D1934B1B7883F001035F
:103FDC00DBB2002B2CD0914B1B68002B28D007F1A7
:103FEC00480300221A605A609A60DA601023BB649E
:103FFC008B4BFB6401233B6507F14803194685484D
:10400C0001F0CCFE874B1B68874A1360874B1B68FB
:10401C00874A1360844B1B680133834A1360844BBB
:10402C000A221A60834B01221A60834B00221A6009
:10403C0000224FF48071764802F007F900224FF409
:10404C000071734802F001F900224FF4806170484E
:10405C0002F0FBF8002201216D4802F0F6F8774BD4
:10406C001B68774A1360734B1B68012B0CD1754B83
:10407C001B6800225A62734803F012FB724B012238
:10408C001A60724B03221A6007F58473A3F58173CF
:10409C001B88202B40F08081674B1B68012B40F064
:1040AC006A8100F03FFE0346644A1360634B1A6852
:1040BC00634B1B68D21A664B1B689A4204D8654B3B
:1040CC001B68012B40F057812021524802F0A6F8C2
:1040DC000346002B40F04B8100224FF480714C487A
:1040EC0002F0B3F801224FF40071494802F0ADF828
:1040FC0001224FF48061464802F0A7F80122012109
:10410C00434802F0A2F82021424802F087F8034607
:10411C00002B2ED1414B1B68002B00F0118107F1B5
:10412C00380300221A605A609A60DA602023BB635D
:10413C003B4BFB6301233B6407F1380319463548BD
:10414C0001F02CFE444B1B68444A1360374B1B6830
:10415C00374A1360414B1B680133404A1360344BA0
:10416C000A221A60334B01221A60334B00221A6068
:10417C00E6E001224FF48071254802F066F8002237
:10418C004FF40071224802F060F801224FF4806174
:10419C001F4802F05AF8012201211D4802F055F87F
:1041AC0020211C4802F03AF80346002B5CD11A4B34
:1041BC001B7883F00103DBB2002B55D007F12803E9
:1041CC0000221A605A609A60DA602023BB62144B9A
:1041DC00FB6201233B6307F1280319460D4801F0EC
:1041EC00DDFD1F4B1B681F4A1360104B1B68104AE8
:1041FC0013601C4B1B6801331A4A13600C4B0022D2
:10420C001A600C4B01221A600B4B00221A6097E0CB
:10421C00000C014000080140640B0020600B0020E2
:10422C0000001110F4090020A80B0020FC0A00204B
:10423C00740B0020B40B002044020020000A002064
:10424C00FC09002008040020BC0B0020C40B00203B
:10425C0028020020400200202C0A0020AC0B002079
:10426C00280A0020A00B002001224FF480718C48FA
:10427C0001F0EBFF01224FF40071894801F0E5FFDA
:10428C0000224FF48061864801F0DFFF01220121FA
:10429C00834801F0DAFF2021824801F0BFFF03467A
:1042AC00002B30D1804B1B7883F00103DBB2002B49
:1042BC0029D007F1180300221A605A609A60DA605C
:1042CC002023BB61794BFB6101233B6207F118038F
:1042DC001946744801F062FD754B1B68754A1360F2
:1042EC00754B1B68754A1360724B1B680133714A1E
:1042FC001360724B0B221A60714B01221A60714BC6
:10430C0000221A601CE001224FF48071644801F015
:10431C009CFF01224FF40071614801F096FF0122CD
:10432C004FF480615E4801F090FF002201215C484F
:10433C0001F08BFF20215B4801F070FF0346002B3E
:10434C0000224FF48071564801F07FFF00224FF499
:10435C000071534801F079FF00224FF480615048FE
:10436C0001F073FF002201214D4801F06EFF564B06
:10437C001B68564A1360524B1B68012B0CD1544BD3
:10438C001B6800225A62524803F08AF9514B0122F1
:10439C001A60514B04221A6007F58473A3F58173DC
:1043AC001B88022B4DD14D4B1B685B6A4C4A13602A
:1043BC004B4B1A684B4B1B68D31A4B4A1360484B38
:1043CC001B68484A1360484B1A68484B1B68D1B2AB
:1043DC00474AD154454B1B680133444A1360434B45
:1043EC001B68542B2DDD3D4803F0ACF9072001F080
:1043FC0018FA07F58473A3F580731A46002313602B
:10440C0053609360D36007F58473A3F58073002227
:10441C009A6007F58473A3F5807301225A6007F53F
:10442C008473A3F5807302221A6007F58473A3F5D5
:10443C0080730222DA6007F108031946194801F06B
:10444C00ADFC07F58473A3F581731B88B3F5807FEE
:10445C000CD11F4B1B6800225A621D4803F020F937
:10446C001C4B01221A601C4B05221A6007F5847341
:10447C00A3F581731B88B3F5006F0CD1144B1B682B
:10448C0000225A62124803F00BF9124B01221A60F7
:10449C00114B06221A6000BF07F58477BD4680BD1C
:1044AC00000C014000080140640B002000001110BA
:1044BC00300A0020B00B0020FC0A0020740B0020F6
:1044CC00B40B002044020020000A0020FC0900204C
:1044DC0008040020BC0B0020C40B0020C0030020EB
:1044EC00480A0020440A00204C0A0020B80A002088
:1044FC00500A002080B584B000AF7860396028483D
:10450C0003F020F9072001F08CF90023FB60042351
:10451C00BB603DE0FB68002B00DA0733DB1019466B
:10452C000A463B6813441A783B680B445200D2B2DB
:10453C001A70BB687A6813441A78BB6801337968BF
:10454C000B441B789A420DD9FB68002B00DA073319
:10455C00DB1019460A463B681A443B680B44127838
:10456C001A700FE0FB68002B00DA0733DB101946DA
:10457C000A463B6813441A783B680B4442F001022C
:10458C00D2B21A70FB680133FB60BB680233BB60AC
:10459C00BB68522BBEDD00BF00BF1037BD4680BDCF
:1045AC00C003002080B584B000AF284803F078F831
:1045BC00072001F036F9264B00221A603B460022F8
:1045CC001A605A609A60DA600123BB6000237B603A
:1045DC0002233B600223FB603B4619461D4801F059
:1045EC00DDFB012000F0A8FB0023BB6001237B60F6
:1045FC0002233B600223FB603B461946154801F041
:10460C00CDFB00220221134801F01FFE142000F004
:10461C0093FB0F4B1B68002B06D10C4B1B68002225
:10462C005A620D4B00221A6002233B600B4B7B60DD
:10463C000123BB603B461946064801F0AFFB07203F
:10464C0001F0E1F800BF1037BD4680BDC00300206B
:10465C00B80A002000080140440A00200000311074
:10466C0080B400AF72B600BFFEE7000080B483B028
:10467C0000AF0E4B9B690D4A43F0010393610B4B4A
:10468C009B6903F001037B607B68084BDB69074A7D
:10469C0043F08053D361054BDB6903F080533B60DF
:1046AC003B6800BF0C37BD4680BC70470010024011
:1046BC0080B58AB000AF786007F1180300221A6049
:1046CC005A609A60DA607B681B68304A93422AD140
:1046DC002F4B9B692E4A43F4007393612C4B9B69BF
:1046EC0003F400737B617B69294B9B69284A43F077
:1046FC0004039361264B9B6903F004033B613B6904
:10470C004023BB610323FB6107F1180319462148C1
:10471C0001F044FB00220F21122001F058F8122066
:10472C0001F071F82EE07B681B681B4A934229D17B
:10473C00174B9B69164A43F480639361144B9B6936
:10474C0003F48063FB60FB68114B9B69104A43F0D8
:10475C00040393610E4B9B6903F00403BB60BB68BD
:10476C008023BB610323FB6107F118031946094839
:10477C0001F014FB00220F21122001F028F8122066
:10478C0001F041F800BF2837BD4680BD0024014030
:10479C0000100240000801400028014080B588B09C
:1047AC0000AF786007F1100300221A605A609A601B
:1047BC00DA607B681B68154A934223D1144B9B69C2
:1047CC00134A43F008039361114B9B6903F00803F0
:1047DC00FB60FB68C0233B6112237B610323FB61FD
:1047EC0007F1100319460B4801F0D8FA084BDB69A6
:1047FC00074A43F40013D361054BDB6903F4001340
:10480C00BB60BB6800BF2037BD4680BD0054004074
:10481C0000100240000C014080B582B000AF7860FF
:10482C007B681B680A4A93420DD10A4BDB69094A23
:10483C0023F40013D3614021074801F033FC80219D
:10484C00054801F02FFC00BF0837BD4680BD00BFF6
:10485C000054004000100240000C014080B586B0AE
:10486C0000AF78607B681B68384A93421CD1384B88
:10487C009B69374A43F400639361354B9B6903F49E
:10488C0000637B617B6900220F21182000F09FFFE1
:10489C00182000F0B8FF00220F21192000F097FF1C
:1048AC00192000F0B0FF4CE07B681B68B3F1804F1F
:1048BC0014D1274BDB69264A43F00103D361244B07
:1048CC00DB6903F001033B613B69002203211C20DF
:1048DC0000F07DFF1C2000F096FF32E07B681B6827
:1048EC001C4A934214D11A4BDB69194A43F0020358
:1048FC00D361174BDB6903F00203FB60FB680022FA
:10490C0008211D2000F063FF1D2000F07CFF18E043
:10491C007B681B68104A934213D10D4BDB690C4A20
:10492C0043F00403D3610A4BDB6903F00403BB605F
:10493C00BB6800220E211E2000F049FF1E2000F053
:10494C0062FF00BF1837BD4680BD00BF002C014080
:10495C0000100240000400400008004080B588B000
:10496C0000AF786007F1100300221A605A609A6059
:10497C00DA607B681B68334A93425FD1324B9B6988
:10498C00314A43F4804393612F4B9B6903F480437A
:10499C00FB60FB682C4B9B692B4A43F0040393612F
:1049AC00294B9B6903F00403BB60BB684FF4007395
:1049BC003B6102237B610323FB6107F11003194662
:1049CC00224801F0EBF94FF480633B6100237B61DB
:1049DC000023BB6107F1100319461C4801F0DEF9F6
:1049EC001B4B1C4A1A601A4B00225A60184B0022AF
:1049FC009A60174B8022DA60154B00221A61144B17
:104A0C0000225A61124B20229A61114B0022DA616A
:104A1C000F4800F021FF0346002B01D0FFF720FECA
:104A2C007B680B4ADA630A4A7B68536200220121D5
:104A3C00252000F0CCFE252000F0E5FE00BF20373D
:104A4C00BD4680BD00380140001002400008014006
:104A5C00E00400205800024080B400AFFEE780B4B0
:104A6C0000AFFEE780B400AFFEE780B400AFFEE716
:104A7C0080B400AFFEE780B400AF00BFBD4680BC81
:104A8C00704780B400AF00BFBD4680BC704780B497
:104A9C0000AF00BFBD4680BC704780B500AF00F0D2
:104AAC002FF900BF80BD80B500AF022001F0FEFBE6
:104ABC0000BF80BD80B500AF042001F0F7FB00BF44
:104ACC0080BD80B500AF082001F0F0FB00BF80BDB9
:104ADC0080B500AF102001F0E9FB00BF80BD0000E5
:104AEC0080B500AF024801F025F800BF80BD00BFC3
:104AFC00E004002080B500AF034800F0FFFA034843
:104B0C0000F0FCFA00BF80BDC4020020F4020020BB
:104B1C0080B500AF202001F0C9FB4FF4807001F08C
:104B2C00C5FB00BF80BD000080B500AF024802F09D
:104B3C0037FE00BF80BD00BF7803002080B500AFFA
:104B4C00024802F02DFE00BF80BD00BF780300209C
:104B5C0080B500AF024802F023FE00BF80BD00BF4D
:104B6C00C003002080B500AF024802F019FE00BF60
:104B7C0080BD00BF0804002080B500AF024802F0E1
:104B8C000FFE00BF80BD00BF5004002080B500AFF9
:104B9C00024803F0D9FA00BF80BD00BF9804002082
:104BAC0080B500AF4FF4006001F080FB00BF80BD0A
:104BBC0080B586B000AF7860144A154BD31A7B6170
:104BCC007B693B61134B1B68002B02D1114B124AC2
:104BDC001A60104B1A687B6813443A699A4207D2E0
:104BEC0004F0E0FB03460C221A604FF0FF3309E09F
:104BFC00084B1B68FB60074B1A687B681344054A1B
:104C0C001360FB6818461837BD4680BD0050002065
:104C1C00000C0000000C0020500D002080B400AFF0
:104C2C0000BFBD4680BC7047FFF7F8FF0B480C492E
:104C3C000C4A002302E0D458C4500433C4188C42EC
:104C4C00F9D3094A094C002301E013600432A24253
:104C5C00FBD304F0ADFBFCF7C3FE70470000002053
:104C6C00A40200209CA90008A8020020500D0020DE
:104C7C00FEE7000080B500AF084B1B68074A43F005
:104C8C0010031360032000F097FD0F2000F008F8CC
:104C9C00FFF7ECFC0023184680BD00BF002002404B
:104CAC0080B582B000AF7860124B1A68124B1B783B
:104CBC0019464FF47A73B3FBF1F3B2FBF3F31846D6
:104CCC0000F0BDFD0346002B01D001230EE07B68F4
:104CDC000F2B0AD8002279684FF0FF3000F077FDD7
:104CEC00064A7B681360002300E00123184608374E
:104CFC00BD4680BD48020020500200204C0200201E
:104D0C0080B400AF054B1B781A46054B1B68134447
:104D1C00034A136000BFBD4680BC704750020020A0
:104D2C00040C002080B400AF024B1B681846BD4633
:104D3C0080BC7047040C002080B584B000AF786054
:104D4C00FFF7F0FFB8607B68FB60FB68B3F1FF3FD7
:104D5C0005D00A4B1B781A46FB681344FB6000BF56
:104D6C00FFF7E0FF0246BB68D31AFA689A42F7D8FD
:104D7C0000BF00BF1037BD4680BD00BF50020020F1
:104D8C0080B586B000AF78600023FB7500233B61D3
:104D9C000023BB600023FB607B68002B01D1012347
:104DAC00BEE07B689B68002B7B689B6A002B09D15B
:104DBC007B680022DA627B68002283F82420786802
:104DCC00FFF776FC786800F0BDFB0346FB757B684B
:104DDC009B6A03F01003002B40F09980FB7D002BA5
:104DEC0040F095807B689B6A23F4885323F0020380
:104DFC0043F002027B689A627B685A687B68DB69C5
:104E0C001A437B681B7B5B001343BA681343BB607C
:104E1C007B689B68B3F5807F03D07B689B68012B14
:104E2C0002D14FF4807300E000233A6913433B61D5
:104E3C007B681B7D012B19D17B681B7B002B09D157
:104E4C007B689B69013B5A033B69134343F4006342
:104E5C003B610BE07B689B6A43F020027B689A62A3
:104E6C007B68DB6A43F001027B68DA627B681B6853
:104E7C005B6823F469417B681B683A690A435A6092
:104E8C007B681B689A68284B13407A681268B9686B
:104E9C000B4393607B689B68B3F5807F03D07B6882
:104EAC009B68012B04D17B681B69013B1B05FB60D4
:104EBC007B681B68DB6A23F470017B681B68FA68EB
:104ECC000A43DA627B681B689A68184B1340BA680D
:104EDC009A420BD17B680022DA627B689B6A23F0D2
:104EEC00030343F001027B689A6218E07B689B6ABB
:104EFC0023F0120343F010027B689A627B68DB6A32
:104F0C0043F001027B68DA620123FB7507E07B68E2
:104F1C009B6A43F010027B689A620123FB75FB7D50
:104F2C0018461837BD4680BDFDF7E1FFFE0E1FFF8A
:104F3C0080B584B000AF78600023FB737B6893F876
:104F4C002430012B01D1022398E07B68012283F8E5
:104F5C002420786800F09CFA0346FB73FB7B002B43
:104F6C0040F087807B689B6A23F4407323F0010335
:104F7C0043F480727B689A627B681B68414A934257
:104F8C0005D1414B5B6803F47023002B15D17B6872
:104F9C009B6A23F480127B689A627B681B685B684F
:104FAC0003F48063002B26D07B689B6A23F4405368
:104FBC0043F480527B689A621DE07B689B6A43F4E1
:104FCC0080127B689A627B681B682F4A934204D0DC
:104FDC007B681B682B4A93420DD12B4B5B6803F407
:104FEC008063002B07D07B689B6A23F4405343F407
:104FFC0080527B689A627B689B6A03F48053002B17
:10500C0006D07B68DB6A23F006027B68DA6202E07A
:10501C007B680022DA627B68002283F824207B689C
:10502C001B686FF002021A607B681B689B6803F4B4
:10503C006023B3F5602F13D17B681B68114A934230
:10504C0005D1114B5B6803F47023002B08D17B68EE
:10505C001B689A687B681B6842F4A0029A600CE09B
:10506C007B681B689A687B681B6842F480129A60A4
:10507C0003E07B68002283F82420FB7B1846103762
:10508C00BD4680BD002801400024014080B584B09D
:10509C0000AF78600023FB737B6893F82430012BFE
:1050AC0001D102231AE07B68012283F8242078685E
:1050BC0000F048FA0346FB73FB7B002B09D17B689D
:1050CC009B6A23F4885323F0010343F001027B68AD
:1050DC009A627B68002283F82420FB7B18461037E9
:1050EC00BD4680BD80B483B000AF78607B681B6820
:1050FC00DB6C18460C37BD4680BC704780B584B05D
:10510C0000AF78607B681B681B68FB607B681B6862
:10511C005B68BB60BB6803F02003002B3ED0FB68D0
:10512C0003F00203002B39D07B689B6A03F0100359
:10513C00002B05D17B689B6A43F400727B689A62F2
:10514C007B681B689B6803F46023B3F5602F1DD14B
:10515C007B681B7B002B19D17B681B685A687B68AA
:10516C001B6822F020025A607B689B6A23F48072D1
:10517C007B689A627B689B6A03F48053002B05D191
:10518C007B689B6A43F001027B689A62786800F046
:10519C0074F87B681B686FF012021A60BB6803F02E
:1051AC008003002B4DD0FB6803F00403002B48D088
:1051BC007B689B6A03F01003002B05D17B689B6A0C
:1051CC0043F400527B689A627B681B689B6803F40B
:1051DC00E043B3F5E04F12D07B681B685B6803F4C7
:1051EC008063002B25D17B681B689B6803F46023CC
:1051FC00B3F5602F1DD17B681B7B002B19D17B680D
:10520C001B685A687B681B6822F080025A607B68B6
:10521C009B6A23F480527B689A627B689B6A03F4D6
:10522C008073002B05D17B689B6A43F001027B687D
:10523C009A62786800F0C7F97B681B686FF00C0203
:10524C001A60BB6803F04003002B12D0FB6803F01C
:10525C000103002B0DD07B689B6A43F480327B6882
:10526C009A62786800F012F87B681B686FF0010294
:10527C001A6000BF1037BD4680BD80B483B000AF4C
:10528C00786000BF0C37BD4680BC704780B483B0DB
:10529C0000AF786000BF0C37BD4680BC7047000083
:1052AC0080B485B000AF786039600023FB730023B5
:1052BC00BB607B6893F82430012B01D10223DCE026
:1052CC007B68012283F824203B685B68062B1CD882
:1052DC007B681B68596B3B685A6813469B001344E8
:1052EC00053B1F2202FA03F3DB4319403B681868A5
:1052FC003B685A6813469B001344053B00FA03F2C3
:10530C007B681B680A435A633CE03B685B680C2B68
:10531C001CD87B681B68196B3B685A6813469B004A
:10532C001344233B1F2202FA03F3DB4319403B686F
:10533C0018683B685A6813469B001344233B00FAD9
:10534C0003F27B681B680A431A631BE07B681B68CB
:10535C00D96A3B685A6813469B001344413B1F2291
:10536C0002FA03F3DB4319403B6818683B685A6840
:10537C0013469B001344413B00FA03F27B681B6805
:10538C000A43DA623B681B68092B1CD97B681B68D3
:10539C00D9683B681A6813465B0013441E3B07220E
:1053AC0002FA03F3DB4319403B6898683B681A68C0
:1053BC0013465B0013441E3B00FA03F27B681B6828
:1053CC000A43DA6019E07B681B6819693B681A6844
:1053DC0013465B001344072202FA03F3DB43194024
:1053EC003B6898683B681A6813465B00134400FAE4
:1053FC0003F27B681B680A431A613B681B68102B1D
:10540C0003D03B681B68112B32D17B681B681D4A8B
:10541C00934225D17B681B689B6803F40003002B27
:10542C0026D17B681B689A687B681B6842F4000273
:10543C009A603B681B68102B1AD1134B1B68134ADC
:10544C00A2FB03239A0C13469B0013445B00BB6026
:10545C0002E0BB68013BBB60BB68002BF9D107E0E5
:10546C007B689B6A43F020027B689A620123FB7382
:10547C007B68002283F82420FB7B18461437BD463A
:10548C0080BC7047002401404802002083DE1B438F
:10549C0080B584B000AF78600023FB600023BB6054
:1054AC007B681B689B6803F00103012B40D07B6871
:1054BC001B689A687B681B6842F001029A601F4B5C
:1054CC001B681F4AA2FB03239B0CBB6002E0BB685A
:1054DC00013BBB60BB68002BF9D1FFF723FCF860E4
:1054EC001FE0FFF71FFC0246FB68D31A022B18D9EA
:1054FC007B681B689B6803F00103012B11D07B6850
:10550C009B6A43F010027B689A627B68DB6A43F00B
:10551C0001027B68DA627B68002283F82420012375
:10552C0007E07B681B689B6803F00103012BD8D153
:10553C00002318461037BD4680BD00BF480200202E
:10554C0083DE1B4380B584B000AF78600023FB6022
:10555C007B681B689B6803F00103012B2ED17B68D1
:10556C001B689A687B681B6822F001029A60FFF73F
:10557C00D9FBF8601BE0FFF7D5FB0246FB68D31A9A
:10558C00022B14D97B681B689B6803F00103012B69
:10559C000DD17B689B6A43F010027B689A627B6832
:1055AC00DB6A43F001027B68DA62012307E07B6867
:1055BC001B689B6803F00103012BDCD00023184609
:1055CC001037BD4680BD80B483B000AF786000BF9B
:1055DC000C37BD4680BC704780B485B000AF786096
:1055EC007B6803F00703FB600C4BDB68BB60BA689D
:1055FC004FF6FF031340BB60FB681A02BB681343F2
:10560C0043F0BF6343F40033BB60044ABB68D36010
:10561C0000BF1437BD4680BC704700BF00ED00E0F2
:10562C0080B400AF044BDB681B0A03F00703184679
:10563C00BD4680BC704700BF00ED00E080B483B075
:10564C0000AF0346FB7197F90730002B0BDBFB799E
:10565C0003F01F02064997F907305B09012000FA95
:10566C0002F241F8232000BF0C37BD4680BC7047C6
:10567C0000E100E080B483B000AF0346FB7197F902
:10568C000730002B12DBFB7903F01F020A4997F954
:10569C0007305B09012000FA02F2203341F8232085
:1056AC00BFF34F8F00BFBFF36F8F00BF00BF0C372E
:1056BC00BD4680BC704700BF00E100E080B483B001
:1056CC0000AF03463960FB7197F90730002B0ADBFA
:1056DC003B68DAB20C4997F907301201D2B20B448D
:1056EC0083F800230AE03B68DAB20849FB7903F03F
:1056FC000F03043B1201D2B20B441A7600BF0C37D5
:10570C00BD4680BC704700BF00E100E000ED00E04A
:10571C0080B489B000AFF860B9607A60FB6803F0C0
:10572C000703FB61FB69C3F10703042B28BF0423A8
:10573C00BB61FB690433062B02D9FB69033B00E018
:10574C0000237B614FF0FF32BB6902FA03F3DA43AB
:10575C00BB681A407B699A404FF0FF317B6901FAB4
:10576C0003F3D9437B680B40134318462437BD46DB
:10577C0080BC704780B582B000AF78607B68013B1D
:10578C00B3F1807F01D301230FE00A4A7B68013B10
:10579C0053600F214FF0FF30FFF790FF054B0022B5
:1057AC009A60044B07221A60002318460837BD463E
:1057BC0080BD00BF10E000E080B582B000AF786023
:1057CC007868FFF709FF00BF0837BD4680BD80B57C
:1057DC0086B000AF0346B9607A60FB7300237B612F
:1057EC00FFF71EFF78617A68B9687869FFF790FF58
:1057FC00024697F90F3011461846FFF75FFF00BFBE
:10580C001837BD4680BD80B582B000AF0346FB7132
:10581C0097F907301846FFF711FF00BF0837BD4650
:10582C0080BD80B582B000AF0346FB7197F907309D
:10583C001846FFF71FFF00BF0837BD4680BD80B577
:10584C0082B000AF78607868FFF794FF0346184683
:10585C000837BD4680BD000080B485B000AF7860CD
:10586C000023FB607B68002B01D1012343E07B68A4
:10587C001B681A46224B1344224AA2FB03231B0922
:10588C009A007B681A647B681F4ADA637B68022281
:10589C0083F821207B681B681B68FB60FB6823F482
:1058AC007F5323F03003FB607B685A687B689B68EE
:1058BC001A437B68DB681A437B681B691A437B6855
:1058CC005B691A437B689B691A437B68DB691343EA
:1058DC00FA681343FB607B681B68FA681A607B6884
:1058EC0000229A637B68012283F821207B680022C6
:1058FC0083F82020002318461437BD4680BC70471F
:10590C00F8FFFDBFCDCCCCCC0000024080B586B0FA
:10591C0000AFF860B9607A603B600023FB75FB68F0
:10592C0093F82030012B01D102234BE0FB680122BC
:10593C0083F82020FB6893F82130DBB2012B3AD19D
:10594C00FB68022283F82120FB6800229A63FB6823
:10595C001B681A68FB681B6822F001021A603B681E
:10596C007A68B968F86800F0EBF9FB68DB6A002B21
:10597C0008D0FB681B681A68FB681B6842F00E02B3
:10598C001A600FE0FB681B681A68FB681B6822F042
:10599C0004021A60FB681B681A68FB681B6842F0FB
:1059AC000A021A60FB681B681A68FB681B6842F0E5
:1059BC0001021A6005E0FB68002283F82020022314
:1059CC00FB75FB7D18461837BD4680BD80B485B08D
:1059DC0000AF78600023FB737B6893F82130DBB257
:1059EC00022B08D07B6804229A637B68002283F820
:1059FC002020012320E07B681B681A687B681B68E9
:105A0C0022F00E021A607B681B681A687B681B68A0
:105A1C0022F001021A607B681A6C7B68DB6B012137
:105A2C0001FA02F25A607B68012283F821207B681C
:105A3C00002283F82020FB7B18461437BD4680BC1F
:105A4C007047000080B584B000AF78600023FB7312
:105A5C007B6893F82130DBB2022B05D07B680422E3
:105A6C009A630123FB7351E07B681B681A687B689F
:105A7C001B6822F00E021A607B681B681A687B6830
:105A8C001B6822F001021A607B681B68224A934251
:105A9C0029D07B681B68214A934222D07B681B6803
:105AAC001F4A93421AD07B681B681E4A934212D03D
:105ABC007B681B681C4A93420AD07B681B681B4A94
:105ACC00934202D14FF480130EE04FF080730BE041
